:100000000C947C010C9499010C9499010C94990125
:100010000C9499010C9499010C9499010C949901F8
:100020000C9499010C9499010C9499010C949901E8
:100030000C9499010C949A210C9499010C949901B7
:100040000C9499010C9499010C94B1220C9499018F
:100050000C9499010C9499010C9499010C949901B8
:100060000C9499010C94990187208A20E520942012
:10007000E520E520E520E520E520E520E520E52058
:10008000E520A220E520E520E520E520E520E5208B
:10009000E520E520E520E520E520E520E520E52038
:1000A000E520E520E520E520E520E520E520E52028
:1000B000E520E520E520E520E520E520E520E52018
:1000C000E520E520E520E520E520E520E520E52008
:1000D000E520E520E520E520E520E520E520E520F8
:1000E000E520AC20AF20BD20C720C720C720C720F7
:1000F000C720C720D520E520E520E520E520E52024
:10010000E520E520E520E520E520E520E520E520C7
:10011000E520E520E520E520E520E520E520E520B7
:10012000E520E520E520E520E520E520E520D820B4
:10013000E520DB2007634236B79BD8A71A396856FB
:1001400018AEBAAB558C1D3CB7CC5763BD6DEDFDF9
:10015000753EF6177231BF000000803F08000000B6
:10016000BE922449123EABAAAA2ABECDCCCC4C3EAC
:1001700000000080BEABAAAAAA3E00000000BF009B
:100180000000803F0000000000084178D3BB438797
:10019000D1133D190E3CC3BD4282AD2B3E68EC82AB
:1001A00076BED98FE1A93E4C80EFFFBE01C4FF7F30
:1001B0003F00000000006E616E00696E6600004046
:1001C0007A10F35A00A0724E18090010A5D4E80066
:1001D00000E87648170000E40B54020000CA9A3B7E
:1001E000000000E1F5050000809698000000404204
:1001F0000F000000A0860100000010270000000092
:10020000E803000000006400000000000A00000095
:1002100000000100000000002C76D888DC674F0841
:1002200023DFC1DFAE59E1B1B796E5E3E453C63A47
:10023000E651997696E8E6C28426EB898C9B62EDBE
:10024000407C6FFCEFBC9C9F40F2BAA56FA5F49078
:10025000055A2AF75C936B6CF9676DC11BFCE0E4EF
:100260000D47FEF520E6B500D0ED902E0300943545
:1002700077050080841E080000204E0A000000C898
:100280000C333333330F986E12831141EF8D2114E9
:10029000893BE65516CFFEE6DB18D1844B381BF7B9
:1002A0007C1D901DA4BBE424203284725E22810058
:1002B000C9F124ECA1E53D27262653555045524867
:1002C00048483131313430312626320000000000F8
:1002D000000000000000000000000000000000001E
:1002E000000000000000000000000000000000000E
:1002F000000000000000000011241FBECFEFD8E076
:10030000DEBFCDBF11E0A0E0B1E0E4ECF7E502C054
:1003100005900D92A232B107D9F724E0A2E2B1E034
:1003200001C01D92A43DB207E1F70E94FB1F0C948F
:10033000E02B0C9400004198429A0895429884E181
:1003400000008150E9F726E140E050E0BA01419A0F
:1003500094E100009150E9F7440F551F661F771F85
:1003600086B18170482B419894E100009150E9F7E3
:10037000215069F7429A83E0419A94E1000091503C
:10038000E9F7419894E100009150E9F78150A1F715
:10039000CA01089581E48093B8001092B90084E006
:1003A0008093BC00089584EA8093BC00ECEBF0E0FD
:1003B00080818823ECF7089584E98093BC00ECEBFE
:1003C000F0E0808184FDFDCF08958093BB0084E838
:1003D0008093BC00ECEBF0E080818823ECF708957B
:1003E00084EC8093BC00ECEBF0E080818823ECF798
:1003F0008091BB00089584E88093BC00ECEBF0E0B2
:1004000080818823ECF78091BB000895EF92FF92E2
:100410000F931F93CF93DF93082F192FEB01F42E27
:100420000E94D3018091B900887F8830B1F580EABD
:100430000E94E5018091B900887F883181F5812F84
:100440000E94E5018091B900887F883251F5802FA4
:100450000E94E5018091B900887F883221F58E01E4
:10046000CF0DD11D0F2EF9EBEF2EF12CF02D0AC080
:10047000F80181918F010E94E501F7018081887F59
:10048000883299F40C171D0799F70E94DC0185E06A
:1004900090E00E94A10381E009C080E007C080E0F5
:1004A00005C080E003C080E001C080E0DF91CF9113
:1004B0001F910F91FF90EF900895CF92DF92EF92EE
:1004C000FF920F931F93CF93DF938C017B01EA017F
:1004D0008F7181F040E2481BC42ED12CCC15DD0574
:1004E00068F0C8010E940602CC19DD090C0D1D1D23
:1004F000EC0CFD1C209759F491E027C04C2FC8014B
:100500000E94060291E0811120C090E01EC0C0321E
:10051000D10590F040E2B701C8010E940602982F71
:10052000882399F0A097005E1F4F80E2E80EF11C2F
:10053000209769F791E009C04C2FB701C8010E94CC
:10054000060291E0811101C090E0892FDF91CF91E7
:100550001F910F91FF90EF90DF90CF900895CF9271
:10056000DF92EF92FF920F931F93CF93DF938C0153
:100570007B01EA018F7171F040E2481BC42ED12C3F
:10058000CC15DD0558F0C8010E940602CC19DD0922
:100590000C0D1D1D209759F491E024C04C2FC8016B
:1005A0000E94060291E081111DC090E01BC0C03284
:1005B000D10578F040E2B701C8010E940602982FE9
:1005C000882381F0A097005E1F4F209781F791E06C
:1005D00009C04C2FB701C8010E94060291E08111A9
:1005E00001C090E0892FDF91CF911F910F91FF9073
:1005F000EF90DF90CF900895EF92FF920F931F93AB
:10060000CF93DF93D82FC92F7B018A010E94D3019A
:100610008091B900887F883009F054C080EA0E9438
:10062000E5018091B900887F883109F04DC08C2F99
:100630000E94E5018091B900887F883209F046C0A8
:100640008D2F0E94E5018091B900887F883209F0E2
:100650003FC00E94D3018091B900887F8031D1F5DD
:1006600081EA0E94E5018091B900887F8034A1F57C
:100670000115110599F10130110531F0C9EBD0E0F8
:1006800010C00130110569F40E94FB01F70180835D
:100690008091B900887F883519F50E94DC0181E0DE
:1006A00022C0FFEFEF1AFF0A0E94F001F701319715
:1006B00080838881887F8035A9F40150110909F76A
:1006C00081E011C080E00FC080E00DC080E00BC071
:1006D00080E009C080E007C080E005C081E003C081
:1006E00080E001C080E0DF91CF911F910F91FF90DA
:1006F000EF900895CF93DF93CDB7DEB7D2500FB60A
:10070000F894DEBF0FBECDBFAB01BE016F5F7F4F60
:1007100020E032E0DB01F9011D923197E9F70E94F8
:10072000AF02DE5F0FB6F894DEBF0FBECDBFDF9124
:10073000CF910895372F262F692F782F832F922F4F
:10074000089590932D0180932C0180912C0190911C
:100750002D01892BD1F70895A895E0E6F0E080817E
:100760008861808388E2808308958EE087B98CE079
:1007700088B986E28AB91BB88FE284B985B18360F3
:1007800085B9289A0895F8940E94B5030E944422DE
:100790000E9476210E94CA010E943A210E94AC0365
:1007A00015BE81E080936F0010926B0010926C0078
:1007B00010926D001DBA1092690010926800789432
:1007C0005D9A88EC90E00E94A1030E949B015A98D8
:1007D0008CE291E00E94A10308950F931F93CF93A1
:1007E000DF9300D0CDB7DEB742E050E0BE016F5FCF
:1007F0007F4F80E290E00E94FC028981823109F4FF
:100800005AC08A81843309F456C04CEA50E064E748
:1008100073E080E490E00E94FC02E4E7F3E081E012
:1008200090E091838083148215821682178280E083
:1008300090E0A0E8BFE380879187A287B38780E03C
:1008400091E09787868782EF92EDACE1B1E4808BEF
:10085000918BA28BB38B1382128284E190E09587F7
:1008600084874CEA50E0BF0180E490E00E945D0282
:1008700014E3198302E10A8342E050E0BE016F5F96
:100880007F4F80E390E00E945D0281E0809322012F
:10089000E4E3F3E0808591859927916091878087D3
:1008A00009831A8342E050E0BE016F5F7F4F80E210
:1008B00090E00E945D0219821A8242E050E0BE017F
:1008C0006F5F7F4F80E390E00E94FC028981843358
:1008D00079F48A81823161F481E080932201E4E33A
:1008E000F3E08085918599279160918780870AC080
:1008F00010922201E4E3F3E08085918599279260CC
:10090000918780874CEA50E064E773E080E490E0F0
:100910000E94FC02E4E3F3E08CEB92E0918380839D
:1009200085E194E09383828381E00F900F90DF91C3
:10093000CF911F910F910895CF92DF92EF92FF9286
:100940000F931F93CF93DF93CDB7DEB7C85CD10968
:100950000FB6F894DEBF0FBECDBFFE01319688EC16
:10096000DF011D928A95E9F78F016E01B9ECCB0E7C
:10097000D11C7F010E949E01F701819391937F0119
:10098000CE16DF06B9F730E03F5F343641F1232F52
:10099000D801F80140815181822F90E0FC01EE0FD7
:1009A000FF1F61E070E06C0F7D1FE60FF71F608195
:1009B00071816417750768F411967C936E93880FA4
:1009C000991FE1E0F0E0EC0FFD1FE80FF91F5183E4
:1009D00040832F5F2436E8F20E5F1F4FD5CFFE0114
:1009E000E15BFF4FAE0149585F4F60E070E0CB0123
:1009F00021913191620F731F811D911D4E175F0769
:100A0000B9F70E94DE2320E030E040EA51E40E9482
:100A10006C232FE632E143E850E40E94952420E065
:100A200030E040E857E30E94952420E030E040E0C9
:100A30005FE30E94FA2220E030E04AE754E40E949B
:100A400095242BEA3AEA4EEA51E40E946C23609323
:100A50004C0370934D0380934E0390934F03C85300
:100A6000DF4F0FB6F894DEBF0FBECDBFDF91CF9141
:100A70001F910F91FF90EF90DF90CF900895662324
:100A8000F9F0FC016150262F30E02F5F3F4FAC01A1
:100A9000420F531F8FEF9FEF2191822728E080FFA5
:100AA00007C09695879531E0832730EA932702C0E7
:100AB00096958795215099F7E417F50769F70895FA
:100AC0008FEF9FEF0895CF93DF9300D000D01F9258
:100AD000CDB7DEB7882309F12091740330917503F7
:100AE00029839091350290689A838B8363E0CE01CD
:100AF00001960E943F058C839D835A9A81E090E085
:100B00000E94A10365E070E0CE0101960E945C2284
:100B10008AE090E00E94A1035A980F900F900F90E6
:100B20000F900F90DF91CF9108950F931F93CF9364
:100B3000DF93C4E7D3E02881398188819981322FFE
:100B40002227892F9927822B932B00E214E0F801AA
:100B5000918380832A813B818A819B81322F222746
:100B6000892F9927822B932B938382832C853D8514
:100B70008C859D85322F2227892F9927822B932BB5
:100B8000958784872E853F858E859F85322F2227E6
:100B9000892F9927822B932B978786876C817D815C
:100BA0008E819F810E949A03F801648375838683F6
:100BB0009783688579858A859B850E949A03F801C9
:100BC0006087718782879387688979898A899B89F9
:100BD0000E949A03F801608B718B828B938B6C89D6
:100BE0007D898E899F890E949A03F801648B758B99
:100BF000868B978B00E010E0E8012696CC0FDD1F76
:100C0000CC0FDD1FFE01EC58FC4F608171818281A9
:100C100093810E949A03C05EDB4F688379838A8345
:100C20009B830F5F1F4F0630110531F76091A403BE
:100C30007091A5038091A6039091A7030E949A0347
:100C40006093500470935104809352049093530422
:100C500000E010E0E8012D96CC0FDD1FCC0FDD1F6A
:100C6000FE01EC58FC4F60817181828193810E946A
:100C70009A03C05EDB4F688379838A839B830F5F0F
:100C80001F4F0530110531F700E010E0E8016296D2
:100C9000CC0FDD1FCC0FDD1FFE01EC58FC4F608137
:100CA0007181828193810E949A03C05EDB4F6883C9
:100CB00079838A839B830F5F1F4F0530110531F7BE
:100CC00000E010E0E8016796CC0FDD1FCC0FDD1FC0
:100CD000FE01EC58FC4F60817181828193810E94FA
:100CE0009A03C05EDB4F688379838A839B830F5F9F
:100CF0001F4F0530110531F700E010E0E8016C9658
:100D0000CC0FDD1FCC0FDD1FFE01EC58FC4F6081C6
:100D10007181828193810E949A03C05EDB4F688358
:100D200079838A839B830F5F1F4F0530110531F74D
:100D300000E010E0E801A196CC0FDD1FCC0FDD1F15
:100D4000FE01EC58FC4F60817181828193810E9489
:100D50009A03C05EDB4F688379838A839B830F5F2E
:100D60001F4F0530110531F700E010E0E801A696AD
:100D7000CC0FDD1FCC0FDD1FFE01EC58FC4F608156
:100D80007181828193810E949A03C05EDB4F6883E8
:100D900079838A839B830F5F1F4F0530110531F7DD
:100DA000DF91CF911F910F9108954F925F926F92B3
:100DB0007F928F929F92AF92BF92CF92DF92EF92EB
:100DC000FF920F931F93CF93DF93C4E3D3E0288167
:100DD000398188819981322F2227892F9927822B67
:100DE000932B04E513E0F801918380832A813B81F2
:100DF0008A819B81322F2227892F9927822B932B3F
:100E0000938382838C819D81AE81BF81CC80DD8084
:100E1000EE80FF804C815D816E817F818C809D8022
:100E2000AE80BF80782E6624552444248B2D9927CC
:100E3000AA27BB2784299529A629B729CC24EE24E3
:100E4000FF24FE2CED2CDC2CCC248C299D29AE29F2
:100E5000BF29442755277727452F562F672F7727F8
:100E6000842B952BA62BB72B84839583A683B783DE
:100E70002885398588859985322F2227892F9927BA
:100E8000822B932B918780876C857D858E859F85AE
:100E90000E949A03F8016487758786879787688917
:100EA00079898A899B890E949A03F801608B718BEA
:100EB000828B938B6C897D898E899F890E949A038E
:100EC000F801648B758B868B978B688D798D8A8DF5
:100ED0009B8D0E949A03F801608F718F828F938F90
:100EE0006C8D7D8D8E8D9F8D0E949A03F801648F8D
:100EF000758F868F978FDF91CF911F910F91FF9004
:100F0000EF90DF90CF90BF90AF909F908F907F90A9
:100F10006F905F904F900895CF92DF92EF92FF9283
:100F20000F931F93CF93DF93CDB7DEB7C45BD10987
:100F30000FB6F894DEBF0FBECDBFE2E3F2E08481CE
:100F4000658170E07B01F82AB7018681078110E096
:100F5000182B9701200F311FD901119781818830FB
:100F600011F084E001C080E00115110509F482E070
:100F7000A701477F4330510509F449C04530510569
:100F800009F447C0A7014F7E4930510509F443C019
:100F90004F30510509F441C0A7014D7F4131510542
:100FA000F1F145315105E9F1F701EF7DEB31F10543
:100FB000D1F17D97D1F141325105C9F14532510549
:100FC000C1F149325105B9F14D325105B1F1413309
:100FD0005105A9F145335105A1F16933710599F125
:100FE0006F33710591F14134510589F14534510553
:100FF00081F14934510579F14D34510571F1413593
:10100000510569F16535710559F582E029C082E025
:1010100027C082E025C082E023C082E021C082E0B8
:101020001FC082E01DC082E01BC082E019C082E0C8
:1010300017C082E015C082E013C082E011C082E0D8
:101040000FC082E00DC082E00BC082E009C082E0E8
:1010500007C082E005C082E003C082E001C082E0F8
:10106000A901477F4330510509F44AC04530510575
:1010700009F448C0A9014F7E4930510509F444C024
:101080004F30510509F442C0A9014D7F413151054E
:10109000F9F145315105F1F12F7D2B313105E1F1A8
:1010A0002D313105D9F141325105D1F1453251058A
:1010B000C9F149325105C1F14D325105B9F1413300
:1010C0005105B1F145335105A9F1A833B10509F432
:1010D00041C0AE33B10509F43FC04134510561F15F
:1010E0004534510559F14934510551F14D345105FB
:1010F00049F14135510541F1A435B10531F52EC015
:1011000082E023C082E021C082E01FC082E01DC0D7
:1011100082E01BC082E019C082E017C082E015C0E7
:1011200082E013C082E011C082E00FC082E00DC0F7
:1011300082E00BC082E009C082E007C082E005C007
:1011400082E003C082E001C082E0A635B10538F03C
:1011500082E005C082E003C082E001C082E0663523
:10116000710518F4882331F001C082E00E94630504
:1011700080E046C0000F111F0E9495058091740306
:101180009091750389830F2EF2E3CF2EF2E0DF2ECC
:10119000F02DF60183818A830B83B701660F771FD9
:1011A000605E7B4FA801CE0104960E94242B63E071
:1011B000600FCE0101960E943F05E4E0F0E0EC0FE5
:1011C000FD1FE00FF11F8083FE01E00FF11F9583EB
:1011D000F6018281882399F05A9A81E090E00E947A
:1011E000A103B8016B5F7F4FCE0101960E945C2284
:1011F0008AE090E00E94A1035A9881E001C081E05A
:10120000CC54DF4F0FB6F894DEBF0FBECDBFDF91D9
:10121000CF911F910F91FF90EF90DF90CF900895A5
:10122000CF92DF92EF92FF920F931F93CF93DF93B2
:10123000CDB7DEB7A8970FB6F894DEBF0FBECDBF0F
:10124000E2E3F2E08481058110E0182BB801868189
:10125000278130E0382BA801420F531FDA01119784
:101260007901EE0CFF1C8181883011F084E001C00F
:1012700080E0232B09F482E098012B7F2330310595
:1012800051F098012D7F2930310539F02D3031058D
:1012900029F482E003C082E001C082E09A012B7F42
:1012A0002330310549F04D7F4930510539F04D303B
:1012B000510529F482E003C082E001C082E0A03140
:1012C000B10508F082E06031710518F4882331F02F
:1012D00001C082E00E94630580E051C06630710564
:1012E00050F4159740F042E050E06EE373E082E482
:1012F00090E00E94FC020E94D506809174039091B8
:10130000750389830F2EF2E3CF2EF2E0DF2EF02D4E
:10131000F60183818A83EB82000F111FB8016C5A9A
:101320007C4FA701CE0104960E94242B63E06E0D32
:10133000CE0101960E943F05E4E0F0E0EC0FFD1FB6
:10134000EE0DFF1D8083FE01EE0DFF1D9583F6015E
:101350008281882399F05A9A81E090E00E94A1034B
:10136000B7016B5F7F4FCE0101960E945C228AE03D
:1013700090E00E94A1035A9881E001C081E0A89604
:101380000FB6F894DEBF0FBECDBFDF91CF911F9196
:101390000F91FF90EF90DF90CF900895FF920F9301
:1013A0001F93CF93DF93CDB7DEB72C970FB6F8948A
:1013B000DEBF0FBECDBFE2E3F2E08481058110E025
:1013C000182B2681878190E0922B9C878B87218127
:1013D000283021F06894FF24F2F801C0F12C02308B
:1013E000110548F098012650310922303105D8F016
:1013F0006894FF24F1F801151105A9F49C0121500E
:101400003109273F310508F09AC090937503809306
:10141000740342E050E0BE01655F7F4F80E490E0DE
:101420000E945D022FC00130110571F49093770383
:101430008093760342E050E0BE01655F7F4F82E417
:1014400090E00E945D0241C006301105D9F48B8501
:101450009C858431910541F08436910529F084E022
:101460000E94630580E06FC09093810380938003A6
:1014700042E050E0BE01655F7F4F8CE490E00E9447
:101480005D0223C00730110501F52B853C85832FB4
:1014900099270197059728F084E00E94630580E072
:1014A00052C0223028F084E00E94630580E04BC0E7
:1014B000309383032093820342E050E0BE01655FD6
:1014C0007F4F8EE490E00E945D02FF2029F08F2D77
:1014D0000E94630580E037C080917403909175038A
:1014E000898302E312E0F80183818A83E6E3F2E074
:1014F000808191819C838B83828193819E838D8364
:1015000066E0CE0101960E943F058F839887F8011F
:101510008281882391F05A9A81E090E00E94A10391
:1015200068E070E0CE0101960E945C228AE090E0C3
:101530000E94A1035A9881E006C081E004C068942B
:10154000FF24F1F89FCF2C960FB6F894DEBF0FBEA4
:10155000CDBFDF91CF911F910F91FF900895AF9272
:10156000BF92DF92EF92FF920F931F93CF93DF937F
:10157000CDB7DEB72A970FB6F894DEBF0FBECDBF4A
:10158000E2E3F2E02481858190E0922B8C01468198
:10159000278130E0342B4085BC01620F731F7B0133
:1015A00051E0E51AF108232B31F0411108C068948D
:1015B000DD24D1F805C06894DD24D1F801C0D12C18
:1015C0009C01277F2330310509F45DC025303105AA
:1015D00009F45DC09C012F7E2930310509F45BC000
:1015E0002F30310509F45BC09C012D7F213131057D
:1015F00009F459C02531310509F459C0FC01EF7DCA
:10160000EB31F10509F457C07D9709F458C0213238
:10161000310509F458C02532310509F458C0293282
:10162000310509F458C02D32310509F458C0213371
:10163000310509F458C02533310509F458C0093380
:10164000110509F458C00F33110509F458C02134AD
:10165000310509F458C02534310509F458C029343E
:10166000310509F458C02D34310509F458C021352D
:10167000310509F458C00535110509F057C06894C3
:10168000DD24D1F853C06894DD24D1F84FC06894AC
:10169000DD24D1F84BC06894DD24D1F847C06894AC
:1016A000DD24D1F843C06894DD24D1F83FC06894AC
:1016B000DD24D1F83BC06894DD24D1F837C06894AC
:1016C000DD24D1F833C06894DD24D1F82FC06894AC
:1016D000DD24D1F82BC06894DD24D1F827C06894AC
:1016E000DD24D1F823C06894DD24D1F81FC06894AC
:1016F000DD24D1F81BC06894DD24D1F817C06894AC
:10170000DD24D1F813C06894DD24D1F80FC06894AB
:10171000DD24D1F80BC06894DD24D1F807C06894AB
:10172000DD24D1F803C06894DD24D1F89B01277F24
:101730002330310509F45DC02530310509F45DC061
:101740009B012F7E2930310509F45BC02F30310514
:1017500009F45BC09B012D7F2131310509F459C08B
:101760002531310509F459C06F7D6B31710509F4DC
:1017700058C06D31710509F458C02132310509F4A2
:1017800058C02532310509F458C02932310509F411
:1017900058C02D32310509F458C02133310509F400
:1017A00058C02533310509F458C0E8E3EE16F104BA
:1017B00009F472C0FEE3EF16F10409F471C021349C
:1017C000310509F44EC02534310509F44EC02934E1
:1017D000310509F44EC02D34310509F44EC02135D0
:1017E000310509F44EC024E5E216F10409F04CC0BD
:1017F0005BC06894DD24D1F847C06894DD24D1F83B
:1018000043C06894DD24D1F83FC06894DD24D1F84A
:101810003BC06894DD24D1F837C06894DD24D1F84A
:1018200033C06894DD24D1F82FC06894DD24D1F84A
:101830002BC06894DD24D1F827C06894DD24D1F84A
:1018400023C06894DD24D1F81FC06894DD24D1F84A
:101850001BC06894DD24D1F817C06894DD24D1F84A
:1018600013C06894DD24D1F80FC06894DD24D1F84A
:101870000BC06894DD24D1F807C06894DD24D1F84A
:1018800003C06894DD24D1F856E5E516F10478F03C
:101890006894DD24D1F80BC06894DD24D1F807C02A
:1018A0006894DD24D1F803C06894DD24D1F80635AE
:1018B000110518F06894DD24D1F80A30110508F0FC
:1018C00008C520912201211104C0EAE0EE16F104BE
:1018D00018F4DD2079F009C00F2EF5E0DF2EF02D91
:1018E00004C00F2EF5E0DF2EF02D8D2D0E94630534
:1018F00080E0F4C42CEAE4E7F3E0A0E2B4E0019075
:101900000D922A95E1F7880F991F50E06BE372E082
:10191000805E9B4F0E94242B0115110579F4E0E2B3
:10192000F4E02081318180819181322F2227892F1B
:101930009927822B932B9183808303C0023011055A
:1019400090F4E114F10409F440C0E0E2F4E02281F3
:10195000338182819381322F2227892F9927822BED
:10196000932B9383828303301105B0F4F3E0EF16D9
:10197000F10490F00F2EF0E2AF2EF4E0BF2EF02D28
:10198000F50164817581868197810E949A03F50132
:10199000648375838683978305301105B0F4F5E081
:1019A000EF16F10490F00F2EF0E2AF2EF4E0BF2E10
:1019B000F02DF50160857185828593850E949A03DB
:1019C000F50160877187828793870730110590F44E
:1019D000F6E0EF16F10470F0E0E2F4E024853585DE
:1019E00084859585322F2227892F9927822B932B47
:1019F000958784870830110590F427E0E216F104FA
:101A000070F0E0E2F4E02685378586859785322FF1
:101A10002227892F9927822B932B97878687093036
:101A20001105B0F459E0E516F10490F00F2EF0E244
:101A3000AF2EF4E0BF2EF02DF50160897189828907
:101A400093890E949A03F501608B718B828B938B33
:101A50000B301105B0F4FBE0EF16F10490F00F2EFF
:101A6000F0E2AF2EF4E0BF2EF02DF5016489758908
:101A7000868997890E949A03F501648B758B868B02
:101A8000978B0D301105B0F4FDE0EF16F10490F0E6
:101A90000F2EF0E2AF2EF4E0BF2EF02DF501608D99
:101AA000718D828D938D0E949A03F501608F718FE5
:101AB000828F938F0F301105B0F4FFE0EF16F10421
:101AC00090F00F2EF0E2AF2EF4E0BF2EF02DF501D6
:101AD000648D758D868D978D0E949A03F501648FB4
:101AE000758F868F978F01311105B0F4F1E1EF16F4
:101AF000F10490F00F2EF0E2AF2EF4E0BF2EF02DA7
:101B0000F50160A171A182A193A10E949A03F50140
:101B100060A371A382A393A303311105B0F4F3E191
:101B2000EF16F10490F00F2EF0E2AF2EF4E0BF2E8E
:101B3000F02DF50164A175A186A197A10E949A03D9
:101B4000F50164A375A386A397A305311105B0F42D
:101B5000F5E1EF16F10490F00F2EF0E2AF2EF4E075
:101B6000BF2EF02DF50160A571A582A593A50E9459
:101B70009A03F50160A771A782A793A70731110502
:101B8000B0F4F7E1EF16F10490F00F2EF0E2AF2E73
:101B9000F4E0BF2EF02DF50164A575A586A597A5E7
:101BA0000E949A03F50164A775A786A797A7093134
:101BB0001105B0F4F9E1EF16F10490F00F2EF0E208
:101BC000AF2EF4E0BF2EF02DF50160A971A982A916
:101BD00093A90E949A03F50160AB71AB82AB93AB02
:101BE0000B311105B0F4FBE1EF16F10490F00F2E6C
:101BF000F0E2AF2EF4E0BF2EF02DF50164A975A937
:101C000086A997A90E949A03F50164AB75AB86ABD0
:101C100097AB0D311105B0F4FDE1EF16F10490F032
:101C20000F2EF0E2AF2EF4E0BF2EF02DF50160ADE7
:101C300071AD82AD93AD0E949A03F50160AF71AFB3
:101C400082AF93AF0F311105B0F4FFE1EF16F1044D
:101C500090F00F2EF0E2AF2EF4E0BF2EF02DF50144
:101C600064AD75AD86AD97AD0E949A03F50164AF82
:101C700075AF86AF97AF01321105B0F4F1E2EF1600
:101C8000F10490F00F2EF0E6AF2EF4E0BF2EF02D11
:101C9000F50160817181828193810E949A03F5012F
:101CA000608371838283938303321105B0F4F3E27E
:101CB000EF16F10490F00F2EF4E6AF2EF4E0BF2EF5
:101CC000F02DF50160817181828193810E949A03D8
:101CD000F501608371838283938305321105B0F42B
:101CE000F5E2EF16F10490F00F2EF8E6AF2EF4E0D7
:101CF000BF2EF02DF50160817181828193810E9458
:101D00009A03F501608371838283938307321105FF
:101D1000B0F4F7E2EF16F10490F00F2EFCE6AF2ED0
:101D2000F4E0BF2EF02DF5016081718182819381F5
:101D30000E949A03F5016083718382839383093241
:101D40001105B0F4F9E2EF16F10490F00F2EF0E770
:101D5000AF2EF4E0BF2EF02DF501608171818281FC
:101D600093810E949A03F501608371838283938338
:101D70000B321105B0F4FBE2EF16F10490F00F2ED8
:101D8000F4E7AF2EF4E0BF2EF02DF50160817181F4
:101D9000828193810E949A03F5016083718382831B
:101DA00093830D321105B0F4FDE2EF16F10490F0CB
:101DB0000F2EF8E7AF2EF4E0BF2EF02DF501608175
:101DC0007181828193810E949A03F50160837183FE
:101DD000828393830F321105B0F4FFE2EF16F10412
:101DE00090F00F2EFCE7AF2EF4E0BF2EF02DF501A2
:101DF00060817181828193810E949A03F5016083E1
:101E000071838283938301331105B0F4F1E3EF16FC
:101E1000F10490F00F2EF0E8AF2EF4E0BF2EF02D7D
:101E2000F50160817181828193810E949A03F5019D
:101E3000608371838283938303331105B0F4F3E3EA
:101E4000EF16F10490F00F2EF4E8AF2EF4E0BF2E61
:101E5000F02DF50160817181828193810E949A0346
:101E6000F501608371838283938305331105B0F498
:101E7000F5E3EF16F10490F00F2EF8E8AF2EF4E042
:101E8000BF2EF02DF50160817181828193810E94C6
:101E90009A03F5016083718382839383073311056D
:101EA000B0F4F7E3EF16F10490F00F2EFCE8AF2E3C
:101EB000F4E0BF2EF02DF501608171818281938164
:101EC0000E949A03F50160837183828393830933AF
:101ED0001105B0F4F9E3EF16F10490F00F2EF0E9DC
:101EE000AF2EF4E0BF2EF02DF5016081718182816B
:101EF00093810E949A03F5016083718382839383A7
:101F00000B331105B0F4FBE3EF16F10490F00F2E44
:101F1000F4E9AF2EF4E0BF2EF02DF5016081718160
:101F2000828193810E949A03F50160837183828389
:101F300093830D331105B0F4FDE3EF16F10490F037
:101F40000F2EF8E9AF2EF4E0BF2EF02DF5016081E1
:101F50007181828193810E949A03F501608371836C
:101F6000828393830F331105B0F4FFE3EF16F1047E
:101F700090F00F2EFCE9AF2EF4E0BF2EF02DF5010E
:101F800060817181828193810E949A03F50160834F
:101F900071838283938301341105B0F4F1E4EF1669
:101FA000F10490F00F2EF0EAAF2EF4E0BF2EF02DEA
:101FB000F50160817181828193810E949A03F5010C
:101FC000608371838283938303341105B0F4F3E457
:101FD000EF16F10490F00F2EF4EAAF2EF4E0BF2ECE
:101FE000F02DF50160817181828193810E949A03B5
:101FF000F501608371838283938305341105B0F406
:10200000F5E4EF16F10490F00F2EF8EAAF2EF4E0AD
:10201000BF2EF02DF50160817181828193810E9434
:102020009A03F501608371838283938307341105DA
:10203000B0F4F7E4EF16F10490F00F2EFCEAAF2EA7
:10204000F4E0BF2EF02DF5016081718182819381D2
:102050000E949A03F501608371838283938309341C
:102060001105B0F4F9E4EF16F10490F00F2EF0EB47
:10207000AF2EF4E0BF2EF02DF501608171818281D9
:1020800093810E949A03F501608371838283938315
:102090000B341105B0F4FBE4EF16F10490F00F2EB1
:1020A000F4EBAF2EF4E0BF2EF02DF50160817181CD
:1020B000828193810E949A03F501608371838283F8
:1020C00093830D341105B0F4FDE4EF16F10490F0A4
:1020D0000F2EF8EBAF2EF4E0BF2EF02DF50160814E
:1020E0007181828193810E949A03F50160837183DB
:1020F000828393830F341105B0F4FFE4EF16F104EB
:1021000090F00F2EFCEBAF2EF4E0BF2EF02DF5017A
:1021100060817181828193810E949A03F5016083BD
:1021200071838283938301351105B0F4F1E5EF16D5
:10213000F10490F00F2EF0ECAF2EF4E0BF2EF02D56
:10214000F50160817181828193810E949A03F5017A
:10215000608371838283938303351105B0F4F3E5C3
:10216000EF16F10490F00F2EF4ECAF2EF4E0BF2E3A
:10217000F02DF50160817181828193810E949A0323
:10218000F50160837183828393830535110590F493
:10219000F5E5EF16F10470F008EC14E0F801608149
:1021A0007181828193810E949A03F8016083718317
:1021B000828393838091200490912104892B61F084
:1021C0008091200490912104883F910548F00F2EC2
:1021D000F3E0DF2EF02D04C00F2EF3E0DF2EF02D04
:1021E00060913004709131048091320490913304F5
:1021F00021EE3AE74CE151E40E946723882324F161
:1022000060913004709131048091320490913304D4
:1022100020E030E040E251E40E9490241816CCF017
:10222000D1101BC08CEAE0E2F4E0A4E7B3E0019037
:102230000D928A95E1F74CEA50E060E274E080E4A8
:1022400090E00E945D0212C00F2EF3E0DF2EF02D11
:1022500004C00F2EF3E0DF2EF02D8091340288238E
:1022600029F08D2D0E94630580E038C080917403B1
:1022700090917503898302E312E0F80183818A83D8
:10228000E6E3F2E0808191819C838B83828193815C
:102290009E838D8366E0CE0101960E943F058F8369
:1022A0009887F8018281882391F05A9A81E090E022
:1022B0000E94A10368E070E0CE0101960E945C22BA
:1022C0008AE090E00E94A1035A9881E007C081E073
:1022D00005C0209122012111FCCA03CB2A960FB61A
:1022E000F894DEBF0FBECDBFDF91CF911F910F914C
:1022F000FF90EF90DF90BF90AF9008952F923F92A4
:102300004F925F926F927F928F929F92AF92BF9205
:10231000CF92DF92EF92FF920F931F93CF93DF93B1
:10232000CDB7DEB7C45DD1090FB6F894DEBF0FBEDE
:10233000CDBF88E1FE013196DF01282F1D922A953D
:10234000E9F77896DF01282F1D922A95E9F7E057E3
:10235000FF4FDF011D928A95E9F780914403909128
:102360004503A0914603B0914703CF53DF4F8883C5
:102370009983AA83BB83C15CD040809182039091F2
:10238000830388279F708115914091F1809182038A
:102390009091830388279F7081159240B1F18091BD
:1023A00082039091830388279F7081159340D1F118
:1023B000809182039091830388279F7081159440B8
:1023C000F1F1809182039091830388279F7081159A
:1023D000954009F041C08FE195E8ABE8BFE3CB53EE
:1023E000DF4F88839983AA83BB83C55CD0403CC000
:1023F00080E090E0A0E8BFE3CB53DF4F8883998370
:10240000AA83BB83C55CD0402FC08AE999E9A9E8BB
:10241000BFE3CB53DF4F88839983AA83BB83C55C1B
:10242000D04022C08AEB99E4ACE8BFE3CB53DF4F46
:1024300088839983AA83BB83C55CD04015C087EE8F
:102440009BEFA9E8BFE3CB53DF4F88839983AA832F
:10245000BB83C55CD04008C0CB53DF4F18821982C4
:102460001A821B82C55CD040DE0111961D016D01F0
:1024700000E010E00F2EF4E7AF2EF3E0BF2EF02DBA
:10248000F501E484F584B801012E000C880B990B4A
:102490000E94E0232B013C01B70180E090E00E9404
:1024A000DE239B01AC01C301B2010E94952420E010
:1024B00030E04AE754E40E94952420E030E040EA0E
:1024C00050E40E946C23D6016D937D938D939D9370
:1024D0006D010F5F1F4F0630110591F60C94E31A42
:1024E000E4E7F3E0808D918DA28DB38DC753DF4F6C
:1024F00088839983AA83BB83C95CD040C980DA8072
:10250000EB80FC80848C958CA68CB78C808D918D13
:10251000A28DB38DC353DF4F88839983AA83BB8376
:10252000CD5CD040A70196016D817E818F81988519
:102530000E94FA22CF52DF4F688379838A839B837C
:10254000C15DD040C753DF4F288139814A815B810B
:10255000C95CD040C301B2010E94FA229B01AC01C8
:10256000CF52DF4F688179818A819B81C15DD040E4
:102570000E949524C753DF4F688379838A839B83A6
:10258000C95CD040C353DF4F288139814A815B81C8
:10259000CD5CD040C501B4010E94FA229B01AC0180
:1025A000C753DF4F688179818A819B81C95CD040A4
:1025B0000E946C23A70196010E94FB22C753DF4FA4
:1025C000688379838A839B83C95CD040D8C160913A
:1025D0009403709195038091960390919703A301C2
:1025E00092010E94902418160CF06BC0E4E7F3E00F
:1025F000848C958CA68CB78CCD80DE80EF80F8849F
:1026000080A191A1A2A1B3A1C753DF4F8883998371
:10261000AA83BB83C95CD040848D958DA68DB78D70
:10262000C353DF4F88839983AA83BB83CD5CD0409B
:10263000A701960169857A858B859C850E94FA227F
:10264000CF52DF4F688379838A839B83C15DD040FB
:10265000A5019401C301B2010E94FA229B01AC01C1
:10266000CF52DF4F688179818A819B81C15DD040E3
:102670000E9495244B015C01C353DF4F28813981AF
:102680004A815B81CD5CD040C753DF4F688179813F
:102690008A819B81C95CD0400E94FA229B01AC01D7
:1026A000C501B4010E946C23A70196010E94FB2280
:1026B000C753DF4F688379838A839B83C95CD0408B
:1026C0005EC1609198037091990380919A039091F3
:1026D0009B03A30192010E94902418160CF06BC07A
:1026E000E4E7F3E080A091A0A2A0B3A0C984DA84BB
:1026F000EB84FC8484A195A1A6A1B7A1C753DF4FA9
:1027000088839983AA83BB83C95CD04080A191A1AF
:10271000A2A1B3A1C353DF4F88839983AA83BB834C
:10272000CD5CD040A70196016D857E858F85988907
:102730000E94FA22CF52DF4F688379838A839B837A
:10274000C15DD040A5019401C301B2010E94FA22EB
:102750009B01AC01CF52DF4F688179818A819B81D7
:10276000C15DD0400E9495244B015C01C353DF4FF3
:10277000288139814A815B81CD5CD040C753DF4FCE
:10278000688179818A819B81C95CD0400E94FA224C
:102790009B01AC01C501B4010E946C23A701960105
:1027A0000E94FB22C753DF4F688379838A839B8310
:1027B000C95CD040E4C060919C0370919D038091FE
:1027C0009E0390919F03A30192010E9490241816EA
:1027D0000CF06BC0E4E7F3E084A095A0A6A0B7A03E
:1027E000CD84DE84EF84F88880A591A5A2A5B3A549
:1027F000C753DF4F88839983AA83BB83C95CD040CA
:1028000084A195A1A6A1B7A1C353DF4F8883998363
:10281000AA83BB83CD5CD040A701960169897A89E0
:102820008B899C890E94FA22CF52DF4F688379837B
:102830008A839B83C15DD040A5019401C301B2018D
:102840000E94FA229B01AC01CF52DF4F688179814F
:102850008A819B81C15DD0400E9495244B015C011F
:10286000C353DF4F288139814A815B81CD5CD040E1
:10287000C753DF4F688179818A819B81C95CD040D1
:102880000E94FA229B01AC01C501B4010E946C2395
:10289000A70196010E94FB22C753DF4F688379830B
:1028A0008A839B83C95CD0406AC0E4E7F3E080A4DC
:1028B00091A4A2A4B3A4C988DA88EB88FC8884A573
:1028C00095A5A6A5B7A5C753DF4F88839983AA838B
:1028D000BB83C95CD04080A591A5A2A5B3A5C35375
:1028E000DF4F88839983AA83BB83CD5CD040A70147
:1028F00096016D897E898F89988D0E94FA22CF5228
:10290000DF4F688379838A839B83C15DD040A501B3
:102910009401C301B2010E94FA229B01AC01CF5283
:10292000DF4F688179818A819B81C15DD0400E949F
:1029300095244B015C01C353DF4F288139814A81C3
:102940005B81CD5CD040C753DF4F688179818A813C
:102950009B81C95CD0400E94FA229B01AC01C50159
:10296000B4010E946C23A70196010E94FB22C75369
:10297000DF4F688379838A839B83C95CD04004E7F7
:1029800013E0D8015096CD90DD90ED90FC905397D8
:1029900020E030E04AE754E4CB53DF4F688179818F
:1029A0008A819B81C55CD0400E949524A701960135
:1029B0000E9495249B01AC01C753DF4F6881798148
:1029C0008A819B81C95CD0400E946C2320E030E06A
:1029D0004AE754E40E949524CF52DF4F68837983FD
:1029E0008A839B83C15DD040F801868597858F706F
:1029F0009927019709F0E3C58E01075E1F4F780103
:102A00006F01D1018D909D90AD90BD901D01F6019B
:102A10002089318942895389CB53DF4F688179817D
:102A20008A819B81C55CD0400E9495249B01AC01AA
:102A3000C501B4010E946C23D8016D937D938D93E1
:102A40009D938D012E143F04E1F67E01B1E3EB0E60
:102A5000F11C00E010E0F801EE0FFF1FEE0FFF1F6A
:102A6000E855FC4F608171818281938120E030E0E4
:102A70004AE754E40E946C23F701619371938193B8
:102A800091937F010F5F1F4F0530110521F77E01E4
:102A9000F5E4EF0EF11C00E010E0F801EE0FFF1F6F
:102AA000EE0FFF1FE454FC4F60817181828193819E
:102AB00020E030E04AE754E40E946C23D7016D9394
:102AC0007D938D939D937D010F5F1F4F0530110501
:102AD00021F77E01B9E5EB0EF11C00E010E0F801F2
:102AE000EE0FFF1FEE0FFF1FE053FC4F608171815F
:102AF0008281938120E030E04AE754E40E946C2315
:102B0000F70161937193819391937F010F5F1F4F41
:102B10000530110521F77E01FDE6EF0EF11C00E006
:102B200010E0F801EE0FFF1FEE0FFF1FEC51FC4FFE
:102B3000608171818281938120E030E04AE754E432
:102B40000E946C23D7016D937D938D939D937D019E
:102B50000F5F1F4F0530110521F77E01B1E8EB0E25
:102B6000F11C00E010E0F801EE0FFF1FEE0FFF1F59
:102B7000E850FC4F608171818281938120E030E0D8
:102B80004AE754E40E946C23F701619371938193A7
:102B900091937F010F5F1F4F0530110521F77E01D3
:102BA000F5E9EF0EF11C00E010E0F801EE0FFF1F59
:102BB000EE0FFF1FE45FFB4F608171818281938183
:102BC00020E030E04AE754E40E946C23D7016D9383
:102BD0007D938D939D937D010F5F1F4F05301105F0
:102BE00021F720E030E040E850E4CF53DF4F688128
:102BF00079818A819B81C15CD0400E9402254B0172
:102C00005C0120E030E040E450E4CF53DF4F6881C6
:102C100079818A819B81C15CD0400E940225C35387
:102C2000DF4F688379838A839B83CD5CD040259670
:102C30002CAD3DAD4EAD5FAD2597C501B4010E94F1
:102C400095246B017C0121962CAD3DAD4EAD5FAD61
:102C50002197C353DF4F688179818A819B81CD5C45
:102C6000D0400E9495249B01AC01C701B6010E948F
:102C7000FB226B017C0129AD3AAD4BAD5CADCF536E
:102C8000DF4F688179818A819B81C15CD0400E943D
:102C90009524CF53DF4F288139814A815B81C15C04
:102CA000D0400E9495249B01AC01C701B6010E944F
:102CB000FB226B017C012DA93EA94FA958ADCF5332
:102CC000DF4F688179818A819B81C15CD0400E94FD
:102CD00095249B01AC01C701B6010E94FB2229A9E2
:102CE0003AA94BA95CA90E94FB22C755DF4F688314
:102CF00079838A839B83C95AD04069962CAD3DADB8
:102D00004EAD5FAD6997C501B4010E9495246B017A
:102D10007C0165962CAD3DAD4EAD5FAD6597C3535F
:102D2000DF4F688179818A819B81CD5CD0400E9490
:102D300095249B01AC01C701B6010E94FB226B01E7
:102D40007C0161962CAD3DAD4EAD5FAD6197CF532B
:102D5000DF4F688179818A819B81C15CD0400E946C
:102D60009524CF53DF4F288139814A815B81C15C33
:102D7000D0400E9495249B01AC01C701B6010E947E
:102D8000FB226B017C012D962CAD3DAD4EAD5FADB0
:102D90002D97CF53DF4F688179818A819B81C15CF8
:102DA000D0400E9495249B01AC01C701B6010E944E
:102DB000FB2229962CAD3DAD4EAD5FAD29970E940B
:102DC000FB22C355DF4F688379838A839B83CD5A67
:102DD000D040AD962CAD3DAD4EAD5FADAD97C501CC
:102DE000B4010E9495246B017C01A9962CAD3DADE8
:102DF0004EAD5FADA997C353DF4F688179818A815A
:102E00009B81CD5CD0400E9495249B01AC01C70101
:102E1000B6010E94FB226B017C01A5962CAD3DAD55
:102E20004EAD5FADA597CF53DF4F688179818A8121
:102E30009B81C15CD0400E949524CF53DF4F2881F5
:102E400039814A815B81C15CD0400E9495249B01FD
:102E5000AC01C701B6010E94FB226B017C01A19667
:102E60002CAD3DAD4EAD5FADA197CF53DF4F688127
:102E700079818A819B81C15CD0400E9495249B010D
:102E8000AC01C701B6010E94FB226D962CAD3DAD91
:102E90004EAD5FAD6D970E94FB22CF54DF4F68832C
:102EA00079838A839B83C15BD040C358DF4F2881DD
:102EB00039814A815B81CD57D040C501B4010E9460
:102EC00095246B017C01ED962CAD3DAD4EAD5FAD13
:102ED000ED97C353DF4F688179818A819B81CD5CF7
:102EE000D0400E9495249B01AC01C701B6010E940D
:102EF000FB226B017C01E9962CAD3DAD4EAD5FAD83
:102F0000E997CF53DF4F688179818A819B81C15CCA
:102F1000D0400E949524CF53DF4F288139814A81C8
:102F20005B81C15CD0400E9495249B01AC01C7012C
:102F3000B6010E94FB226B017C01E5962CAD3DADF4
:102F40004EAD5FADE597CF53DF4F688179818A81C0
:102F50009B81C15CD0400E9495249B01AC01C701BC
:102F6000B6010E94FB22E1962CAD3DAD4EAD5FADAA
:102F7000E1970E94FB22CB54DF4F688379838A83D9
:102F80009B83C55BD040CF56DF4F288139814A8172
:102F90005B81C159D040C501B4010E9495246B01E9
:102FA0007C01C357DF4F288139814A815B81CD582D
:102FB000D040C353DF4F688179818A819B81CD5C8A
:102FC000D0400E9495249B01AC01C701B6010E942C
:102FD000FB226B017C01C757DF4F288139814A8171
:102FE0005B81C958D040CF53DF4F688179818A8196
:102FF0009B81C15CD0400E949524CF53DF4F288134
:1030000039814A815B81C15CD0400E9495249B013B
:10301000AC01C701B6010E94FB226B017C01CB57BA
:10302000DF4F288139814A815B81C558D040CF5319
:10303000DF4F688179818A819B81C15CD0400E9489
:1030400095249B01AC01C701B6010E94FB22CF571A
:10305000DF4F288139814A815B81C158D0400E946D
:10306000FB22C754DF4F688379838A839B83C95BC4
:10307000D040CB55DF4F288139814A815B81C55AC9
:10308000D040C501B4010E9495246B017C01CF554D
:10309000DF4F288139814A815B81C15AD040C353B7
:1030A000DF4F688179818A819B81CD5CD0400E940D
:1030B00095249B01AC01C701B6010E94FB226B0164
:1030C0007C01C356DF4F288139814A815B81CD590C
:1030D000D040CF53DF4F688179818A819B81C15C69
:1030E000D0400E949524CF53DF4F288139814A81F7
:1030F0005B81C15CD0400E9495249B01AC01C7015B
:10310000B6010E94FB226B017C01C756DF4F28816C
:1031100039814A815B81C959D040CF53DF4F6881E3
:1031200079818A819B81C15CD0400E9495249B015A
:10313000AC01C701B6010E94FB22CB56DF4F2881AC
:1031400039814A815B81C559D0400E94FB22C3541A
:10315000DF4F688379838A839B83CD5BD040FE01F8
:10316000E755FF4F7F016F01F8E1CF0ED11C04E757
:1031700013E0D80150962D913D914D915C9153975C
:10318000CB53DF4F688179818A819B81C55CD040B8
:103190000E9495249B01AC01F701608171818281BD
:1031A00093810E946C23D7016D937D938D939D93A2
:1031B0007D01AC15BD05E9F6609190037091910316
:1031C0008091920390919303A30192010E94902415
:1031D00018160CF05BC0898C9A8CAB8CBC8CC755D4
:1031E000DF4FC880D980EA80FB80C95AD040A70150
:1031F0009601C355DF4F688179818A819B81CD5AC1
:10320000D0400E94FA22CF53DF4F688379838A83AC
:103210009B83C15CD040A5019401CF52DF4F6881F0
:1032200079818A819B81C15DD0400E94FA229B01F5
:10323000AC01CF53DF4F688179818A819B81C15C6A
:10324000D0400E949524CF53DF4F688379838A83CF
:103250009B83C15CD040A50194016D8D7E8D8F8DC7
:1032600098A10E94FA229B01AC01CF53DF4F6881E5
:1032700079818A819B81C15CD0400E946C23A70127
:1032800096010E94FB229B01AC01B8C1609194039E
:10329000709195038091960390919703A3019201F9
:1032A0000E94902418160CF05BC08D8C9E8CAF8C05
:1032B000B8A0C355DF4FC880D980EA80FB80CD5AC3
:1032C000D040A7019601CF54DF4F688179818A8170
:1032D0009B81C15BD0400E94FA22CF53DF4F6883AD
:1032E00079838A839B83C15CD040A5019401CF522E
:1032F000DF4F688179818A819B81C15DD0400E94C6
:10330000FA229B01AC01CF53DF4F688179818A811A
:103310009B81C15CD0400E949524CF53DF4F6883CE
:1033200079838A839B83C15CD040A501940169A104
:103330007AA18BA19CA10E94FA229B01AC01CF53E0
:10334000DF4F688179818A819B81C15CD0400E9476
:103350006C23A70196010E94FB229B01AC014EC188
:10336000609198037091990380919A0390919B03C7
:10337000A30192010E94902418160CF05BC089A052
:103380009AA0ABA0BCA0CF54DF4FC880D980EA8000
:10339000FB80C15BD040A7019601CB54DF4F688111
:1033A00079818A819B81C55BD0400E94FA22CF53EC
:1033B000DF4F688379838A839B83C15CD040A501FA
:1033C0009401CF52DF4F688179818A819B81C15DF1
:1033D000D0400E94FA229B01AC01CF53DF4F68819D
:1033E00079818A819B81C15CD0400E949524CF5312
:1033F000DF4F688379838A839B83C15CD040A501BA
:1034000094016DA17EA18FA198A50E94FA229B0133
:10341000AC01CF53DF4F688179818A819B81C15C88
:10342000D0400E946C23A70196010E94FB229B01C1
:10343000AC01E4C060919C0370919D0380919E0358
:1034400090919F03A30192010E94902418160CF002
:103450005BC08DA09EA0AFA0B8A4CB54DF4FC880A6
:10346000D980EA80FB80C55BD040A7019601C75494
:10347000DF4F688179818A819B81C95BD0400E943E
:10348000FA22CF53DF4F688379838A839B83C15CA1
:10349000D040A5019401CF52DF4F688179818A81A4
:1034A0009B81C15DD0400E94FA229B01AC01CF53A9
:1034B000DF4F688179818A819B81C15CD0400E9405
:1034C0009524CF53DF4F688379838A839B83C15CC4
:1034D000D040A501940169A57AA58BA59CA50E9461
:1034E000FA229B01AC01CF53DF4F688179818A8139
:1034F0009B81C15CD0400E946C23A70196010E9471
:10350000FB229B01AC017AC089A49AA4ABA4BCA401
:10351000C754DF4FC880D980EA80FB80C95BD040A8
:10352000A7019601C354DF4F688179818A819B810D
:10353000CD5BD0400E94FA22CF53DF4F688379835E
:103540008A839B83C15CD040A5019401CF52DF4F99
:10355000688179818A819B81C15DD0400E94FA2275
:103560009B01AC01CF53DF4F688179818A819B81B8
:10357000C15CD0400E949524CF53DF4F688379838C
:103580008A839B83C15CD040A50194016DA57EA573
:103590008FA598A90E94FA229B01AC01CF53DF4F5F
:1035A000688179818A819B81C15CD0400E946C23B3
:1035B000A70196010E94FB229B01AC011FC020E0E5
:1035C00030E0A9011BC00E949C0420E030E0A9016A
:1035D0000E94FB222B013C016091900370919103AA
:1035E0008091920390919303A30192010E949024F1
:1035F000181614F40C9470120C94E712CF52DF4F8B
:10360000688179818A819B81C15DD0400E94FA22C4
:103610006B017C0104E313E0F801408E518E628E51
:10362000738ED80154966D937D938D939C93579789
:10363000209178033091790340917A0350917B0374
:103640000E94FA22F8016487758786879787C75397
:10365000DF4F88819981AA81BB81C95CD040848F6A
:10366000958FA68FB78FC701B601CC52DF4F0FB62B
:10367000F894DEBF0FBECDBFDF91CF911F910F91A8
:10368000FF90EF90DF90CF90BF90AF909F908F9082
:103690007F906F905F904F903F902F9008950F9381
:1036A0001F93CF93DF93CDB7DEB72E970FB6F89465
:1036B000DEBF0FBECDBF1B861C861D861E86809179
:1036C0003302883009F44CC080913402882329F0F9
:1036D00084E00E94630580E04FC00E947E116B87EA
:1036E0007C878D879E8704E713E0F80164837583E8
:1036F0008683978344E050E0BE01655F7F4F84E49A
:1037000090E00E945D02F80180819181898302E34B
:1037100012E0F80183818A831B8282E08C831D8200
:103720008E8366E0CE0101960E943F058F839887C5
:10373000F8018281882391F05A9A81E090E00E94FA
:10374000A10368E070E0CE0101960E945C228AE04D
:1037500090E00E94A1035A9881E00EC081E00CC065
:1037600044E050E066E372E08BE091E00E942D2B94
:10377000892B09F0A9CFB1CF2E960FB6F894DEBFF2
:103780000FBECDBFDF91CF911F910F9108950F9381
:103790001F93CF93DF93CDB7DEB72A970FB6F89478
:1037A000DEBF0FBECDBF809133028830D1F1809152
:1037B0003402882329F084E00E94630580E03DC044
:1037C0000E947E118091740390917503898302E3B6
:1037D00012E0F80183818A831B828CE08C831D8236
:1037E00082E08E8366E0CE0101960E943F058F83C2
:1037F0009887F8018281882391F05A9A81E090E0BD
:103800000E94A10368E070E0CE0101960E945C2254
:103810008AE090E00E94A1035A9881E00EC081E006
:103820000CC044E050E066E372E08BE091E00E945F
:103830002D2B892B09F0BBCFC3CF2A960FB6F89456
:10384000DEBF0FBECDBFDF91CF911F910F910895C5
:103850000F931F93CF93DF93CDB7DEB72A970FB6A1
:10386000F894DEBF0FBECDBF80913302883011F0D7
:1038700014E001C010E044E050E066E372E08BE049
:1038800091E00E942D2B892B59F044E050E066E333
:1038900072E087E091E00E942D2B892B09F014E063
:1038A00080912201882319F0112339F001C015E01D
:1038B000812F0E94630580E0BDC0109135020E94F7
:1038C0009C04153409F445C028F4133461F0143411
:1038D00079F182C0173409F45EC008F44BC0183483
:1038E00009F46AC079C004E713E0F801608F718FB2
:1038F000828F938F44E050E06CE873E088E590E0BD
:103900000E945D028091440390914503A09146037B
:10391000B0914703F80180AB91ABA2ABB3AB44E0ED
:1039200050E064EA73E080E790E00E945D0254C0DA
:103930006093900370939103809392039093930309
:1039400044E050E060E973E08CE590E00E945D02A5
:1039500043C0609394037093950380939603909370
:10396000970344E050E064E973E080E690E00E9451
:103970005D0232C0609398037093990380939A0319
:1039800090939B0344E050E068E973E084E690E0A4
:103990000E945D0221C060939C0370939D038093FD
:1039A0009E0390939F0344E050E06CE973E088E647
:1039B00090E00E945D0210C06093A0037093A10389
:1039C0008093A2039093A30344E050E060EA73E085
:1039D0008CE690E00E945D028091740390917503E3
:1039E000898302E312E0F80183818A831B828AE0E3
:1039F0008C831D8282E08E8366E0CE0101960E9458
:103A00003F058F839887F8018281882391F05A9A25
:103A100081E090E00E94A10368E070E0CE01019691
:103A20000E945C228AE090E00E94A1035A9881E003
:103A300001C081E02A960FB6F894DEBF0FBECDBF5D
:103A4000DF91CF911F910F910895CF93DF93CDB761
:103A5000DEB7A9970FB6F894DEBF0FBECDBFFE014B
:103A600031968FE0DF011D928A95E9F73F9689E153
:103A7000DF011D928A95E9F78091000189A7809165
:103A80003302883009F451C080913402811109C099
:103A9000EAEBF2E0CE010196AE01415F5F4FDC013F
:103AA00005C084E00E94630580E04BC024912D9303
:103AB0003196A417B507D1F7EAECF2E0E491EF876D
:103AC0002091740330917503288B20913502298B46
:103AD0002FE02A8BFE017396AE014E5D5F4FDC0135
:103AE0002D91CD012193E417F507C9F762E1CE01CD
:103AF00040960E943F058AA39BA3809134028823AD
:103B000091F05A9A81E090E00E94A10364E170E094
:103B1000CE0140960E945C228AE090E00E94A103C0
:103B20005A9881E00EC081E00CC044E050E066E3AA
:103B300072E08BE091E00E942D2B892B09F4A8CF35
:103B4000A3CFA9960FB6F894DEBF0FBECDBFDF910D
:103B5000CF9108951F93CF93DF93CDB7DEB72A9708
:103B60000FB6F894DEBF0FBECDBF80913302883010
:103B700009F490C044E050E066E372E083E091E035
:103B80000E942D2B892B09F492C014E044E050E0F0
:103B900066E372E08BE091E00E942D2B892B09F403
:103BA00076C08FC014E001C014E0812F0E9463052D
:103BB00080E08CC081E08093220184E3898382E1EC
:103BC0008A8342E050E0BE016F5F7F4F80E390E068
:103BD0000E945D02E4E3F3E080859185992791607E
:103BE0009187808780917403909175038983809178
:103BF00035028A8380E48B8380E68C8380E88D8322
:103C000080EA8E8325C01092220119821A8242E036
:103C100050E0BE016F5F7F4F80E390E00E945D0245
:103C2000E4E3F3E08085918599279260918780870E
:103C300080917403909175038983809135028A8302
:103C400084E48B8386E68C8388E88D838AEA8E837E
:103C500066E0CE0101960E943F058F839887809190
:103C60003402882391F05A9A81E090E00E94A103E7
:103C700068E070E0CE0101960E945C228AE090E04C
:103C80000E94A1035A9881E021C081E01FC0111158
:103C900013C0B9CF44E050E066E372E083E091E006
:103CA0000E942D2B892B09F485CF10E06FCF8091D6
:103CB0003402811177CF7ECF80913402811175CF8C
:103CC000A2CF80913402882319F26ECF2A960FB6C4
:103CD000F894DEBF0FBECDBFDF91CF911F91089545
:103CE0000F931F93CF93DF93CDB7DEB72A970FB60D
:103CF000F894DEBF0FBECDBF80913302883011F043
:103D000014E001C010E044E050E066E372E08BE0B4
:103D100091E00E942D2B892B09F014E08091220163
:103D2000882319F0112359F001C015E08091340265
:103D3000882341F0812F0E94630580E09DC080E0D0
:103D400090E002C080E090E0FC01EE0FFF1FEE0F5C
:103D5000FF1FE855FC4F10821182128213820196D8
:103D60008530910589F780E090E0FC01EE0FFF1FA0
:103D7000EE0FFF1FE454FC4F108211821282138257
:103D800001968530910589F780E090E0FC01EE0F07
:103D9000FF1FEE0FFF1FE053FC4F108211821282B3
:103DA000138201968530910589F780E090E0FC014F
:103DB000EE0FFF1FEE0FFF1FEC51FC4F1082118220
:103DC0001282138201968530910589F780E090E098
:103DD000FC01EE0FFF1FEE0FFF1FE850FC4F10829B
:103DE00011821282138201968530910589F780E055
:103DF00090E0FC01EE0FFF1FEE0FFF1FE45FFB4F93
:103E0000108211821282138201968530910589F702
:103E100068E770E084E790E00E947A038091740381
:103E200090917503898302E312E0F80183818A830C
:103E30001B828CE08C831D8282E08E8366E0CE0143
:103E400001960E943F058F839887F801828188231D
:103E500091F05A9A81E090E00E94A10368E070E03E
:103E6000CE0101960E945C228AE090E00E94A103AC
:103E70005A9881E001C081E02A960FB6F894DEBF1F
:103E80000FBECDBFDF91CF911F910F9108950F937A
:103E90001F93CF93DF93CDB7DEB7CF5FD1090FB6B6
:103EA000F894DEBF0FBECDBF80913302883011F091
:103EB00014E001C010E044E050E066E372E08FE0FF
:103EC00091E00E942D2B892B09F014E080912201B2
:103ED000882319F0112331F001C015E080913402DC
:103EE000811151C06CE070E080E490E00E947A03A0
:103EF00064E070E080E590E00E947A0362E070E0A8
:103F000080E290E00E947A030E94950580917403FC
:103F100090917503898302E312E0F80183818A831B
:103F20001B821C821D8286E58E838CEA8F83E0E2F1
:103F3000F4E0DE01189601900D928A95E1F763EBAB
:103F4000CE0101960E943F05CC54DF4F8883C45BAD
:103F5000D040CB54DF4F9883C55BD040F8018281BD
:103F6000882381F05A9A81E090E00E94A10365EBDA
:103F700070E0CE0101960E945C228AE090E00E94EF
:103F8000A1035A98FFCF812F0E94630580E0C150A2
:103F9000DF4F0FB6F894DEBF0FBECDBFDF91CF91DC
:103FA0001F910F9108958091250181110AC095B14B
:103FB00084E0892785B900000000000000000000AF
:103FC000A8950895CF93DF9380910201882381F013
:103FD00010920201C4E3D3E0888599858827816225
:103FE000998788870E944321688B798B8A8B9B8B6A
:103FF000DF91CF91089583E191E09093D104809374
:10400000D0040E94C3030E94ED030E9443216093E9
:1040100044037093450380934603909347030F2E08
:10402000F2E3EF2EF2E0FF2EF02DD2E00F2EF4E7B8
:10403000CF2EF3E0DF2EF02D0F2EF4E3AF2EF3E0C2
:10404000BF2EF02D5A98D7018C91882309F40DC109
:1040500085B18D2785B911968C91882371F0C0E0C8
:104060000C2F10E00E948C22F801EE5CFD4F828341
:10407000CF5FF7018181C81798F3D70111966C9132
:10408000625084E392E00E943F05D7011196EC91C3
:104090001197F0E0EF5CFD4F42811196EC91119782
:1040A000F0E0E05DFD4F228130E0342B8217930772
:1040B00099F01196EC911197F0E0EF5CFD4F828141
:1040C0008F3F09F0CAC01196EC91F0E0E05DFD4F22
:1040D00082818F3F09F0C1C0109227011092260102
:1040E000F7018281D6012D913C9190E082179307D0
:1040F00009F06FC0E3818E2F90E0FC013397E63624
:10410000F10508F062C0EC5CFF4F0C94042A0E9499
:104110008C07A3C00E941009F5018085918588272E
:1041200082609187808799C00E94CE09D501189638
:104130008D919C9119978827836019969C938E93F3
:1041400018978BC00E94AF0AF5018085918588275A
:1041500084609187808781C00E94251D7EC00E9457
:104160004F1BD50118968D919C91199788278560D2
:1041700019969C938E93189770C00E94C71BF501E7
:1041800080859185882786609187808766C00E9498
:10419000281CD50118968D919C91199788278760C6
:1041A00019969C938E93189758C00E94701E55C004
:1041B0000E94AA1D52C00E94471FF501808591856B
:1041C000882789609187808748C081E00E946305C5
:1041D00044C08281811141C08381893438F48334A1
:1041E00010F5813441F0823481F037C0863629F1F0
:1041F000883631F132C00E944F1BF50180859185D0
:10420000882781619187808728C00E94C71BD501BC
:1042100018968D919C9119978827826119969C9385
:104220008E9318971AC00E94281CF50180859185ED
:10423000882787609187808710C00E94AA1D0DC0C3
:104240000E94471FD50118968D919C911997882738
:10425000836119969C938E9318970E949A22F70176
:104260001182108285B18D2785B90E94E21F0E94BC
:10427000D31FE8CE81E58CBD08951EBC0DB407FEAA
:10428000FDCF8EB508951F93CF93DF9343988AE0B7
:1042900090E00E94A1030E943D21182F0E943D2121
:1042A000C82F8AE090E00E94A103439AD0E0D12B6E
:1042B000BE0180E090E00E94DE23D5FF0DC020E02B
:1042C00030E040E856E40E94FA2220E030E040E08E
:1042D0005DE30E94952406C020E030E040E05DE30D
:1042E0000E949524DF91CF911F910895A5E8B0E039
:1042F0001C92E4E8F0E010821092800021E020930C
:104300008100109282009CE1909389008CEC809354
:10431000880090938B0080938A009093870080930D
:10432000860020936F0016BA13BC83EE8C9384E34F
:10433000808308951F920F920FB60F9211242F932E
:104340003F938F939F93AF93BF93EF93FF9383EE2E
:104350008093850084E38093840080912C01909168
:104360002D01892B49F080912C0190912D0101970D
:1043700090932D0180932C0180912A0190912B0123
:10438000019690932B0180932A01809128019091AE
:1043900029019C012F5F3F4F309329012093280171
:1043A0008E39974011F428980CC080912801909183
:1043B0002901803D974028F0109229011092280190
:1043C000289A80912A0190912B01883E9340D0F148
:1043D00010922B0110922A01E4E3F3E0848195818D
:1043E000A681B7810196A11DB11D84839583A68303
:1043F000B783809126019091270101969093270120
:10440000809326018091230190912401019690933D
:104410002401809323018091260190912701813905
:10442000934018F081E080932501809123019091C1
:104430002401059738F0109224011092230181E0A5
:10444000809302018091CC04882331F08091CC04C8
:1044500081508093CC040BC080913302882339F0C3
:1044600080913202811103C081E080933202FF917A
:10447000EF91BF91AF919F918F913F912F910F90AD
:104480000FBE0F901F901895E1ECF0E01082109293
:10449000C00086E08093C2008FE28093C400109237
:1044A000C50088E980830895E0ECF0E0908195FFF5
:1044B000FDCF8093C60008950F931F93CF93DF9392
:1044C0006115710551F08C01EC01060F171F8991E0
:1044D0000E945422C017D107D1F7DF91CF911F91CD
:1044E0000F910895EEE2F1E022813381408124139F
:1044F00003C00197F1F70DC0C901019690933101F6
:10450000809330013327F901E25DFE4F848190E012
:1045100008958FEF9FEF0895EEE2F1E092818081A0
:10452000981729F088EE93E00E94722208958FEF89
:104530009FEF0895EEE2F1E0138212821182108261
:1045400081E090E00895CF93C82F8A3019F48DE070
:104550000E9454228C2F0E94542280E090E0CF9140
:1045600008951F920F920FB60F9211242F933F932D
:104570004F935F936F937F938F939F93EF93FF93EB
:104580004091C60080913202811125C0EEE2F1E037
:104590002281338180819181281721F05091CC04B0
:1045A0005523C9F055E05093CC04BC01621B730B3A
:1045B0006F3F710509F050F4FC01FF27E25DFE4FEB
:1045C0004483019690932F0180932E0180912E01B8
:1045D000821B80933302FF91EF919F918F917F9186
:1045E0006F915F914F913F912F910F900FBE0F9060
:1045F0001F9018955058BB27AA270E9412230C948D
:1046000056240E94482438F00E944F2420F039F4A8
:104610009F3F19F426F40C9445240EF4E095E7FB33
:104620000C943F24E92F0E94672458F3BA176207BD
:1046300073078407950720F079F4A6F50C94892474
:104640000EF4E0950B2EBA2FA02D0B01B9019001AD
:104650000C01CA01A0011124FF27591B99F0593FF1
:1046600050F4503E68F11A16F040A22F232F342F39
:104670004427585FF3CF469537952795A795F04087
:104680005395C9F77EF41F16BA0B620B730B840B9C
:10469000BAF09150A1F0FF0FBB1F661F771F881F54
:1046A000C2F70EC0BA0F621F731F841F48F48795AC
:1046B00077956795B795F7959E3F08F0B0CF93959E
:1046C000880F08F09927EE0F9795879508950E9417
:1046D0001B2408F481E008950E9480230C94562442
:1046E0000E944F2458F00E94482440F029F45F3F74
:1046F00029F00C943F2451110C948A240C944524E5
:104700000E94672468F39923B1F3552391F3951B15
:10471000550BBB27AA2762177307840738F09F5FE2
:104720005F4F220F331F441FAA1FA9F335D00E2E4F
:104730003AF0E0E832D091505040E695001CCAF7BC
:104740002BD0FE2F29D0660F771F881FBB1F26177F
:1047500037074807AB07B0E809F0BB0B802DBF0156
:10476000FF2793585F4F3AF09E3F510578F00C9425
:104770003F240C948A245F3FE4F3983ED4F386955B
:1047800077956795B795F7959F5FC9F7880F911D46
:104790009695879597F90895E1E0660F771F881F32
:1047A000BB1F621773078407BA0720F0621B730BE5
:1047B000840BBA0BEE1F88F7E0950895E89409C0C2
:1047C00097FB3EF490958095709561957F4F8F4F44
:1047D0009F4F9923A9F0F92F96E9BB279395F6955A
:1047E000879577956795B795F111F8CFFAF4BB0FD8
:1047F00011F460FF1BC06F5F7F4F8F4F9F4F16C03C
:10480000882311F096E911C0772321F09EE8872FC5
:10481000762F05C0662371F096E8862F70E060E081
:104820002AF09A95660F771F881FDAF7880F9695FA
:10483000879597F90895990F0008550FAA0BE0E89E
:10484000FEEF16161706E807F907C0F01216130652
:10485000E407F50798F0621B730B840B950B39F492
:104860000A2661F0232B242B252B21F408950A26F8
:1048700009F4A140A6958FEF811D811D089597F938
:104880009F6780E870E060E008959FEF80EC0895F6
:1048900000240A941616170618060906089500241F
:1048A0000A9412161306140605060895092E039499
:1048B000000C11F4882352F0BB0F40F4BF2B11F40D
:1048C00060FF04C06F5F7F4F8F4F9F4F089557FD6C
:1048D0009058440F551F59F05F3F71F04795880F6E
:1048E00097FB991F61F09F3F79F087950895121605
:1048F00013061406551FF2CF4695F1DF08C01616B1
:1049000017061806991FF1CF869571056105089461
:104910000895E894BB2766277727CB0197F9089578
:104920000E941B2408F48FEF08950E94A8240C9481
:1049300056240E94482438F00E944F2420F09523EA
:1049400011F00C943F240C94452411240C948A24D7
:104950000E94672470F3959FC1F3950F50E0551F97
:10496000629FF001729FBB27F00DB11D639FAA27C4
:10497000F00DB11DAA1F649F6627B00DA11D661F13
:10498000829F2227B00DA11D621F739FB00DA11D34
:10499000621F839FA00D611D221F749F3327A00DEE
:1049A000611D231F849F600D211D822F762F6A2F8A
:1049B00011249F5750409AF0F1F088234AF0EE0FEF
:1049C000FF1FBB1F661F771F881F91505040A9F71C
:1049D0009E3F510580F00C943F240C948A245F3F45
:1049E000E4F3983ED4F3869577956795B795F79558
:1049F000E7959F5FC1F7FE2B880F911D96958795D0
:104A000097F90895FA01EE0FFF1F30962105310541
:104A1000A1F16115710561F48038BFE39B0749F18D
:104A200068949038810561F08038BFEF9B0741F0B2
:104A300099234AF5FF3FE1053105210519F1E89475
:104A40000894E795D901AA2329F4AB2FBE2FF85F6C
:104A5000D0F310C0FF5F70F4A695E0F7F73950F07F
:104A600019F0FF3A38F49F779F930DD00F9007FC11
:104A70009058089546F00C94452460E070E080E87A
:104A80009FE308954FE79F775F934F933F932F9353
:104A90000E94FD252F913F914F915F910E94952497
:104AA0000C945A2529F416F00C943F240C94892474
:104AB0000C9445240E946F24A8F39638A0F707F8B9
:104AC0000F92E8942BE33AEA48EB5FE70E94AB24AD
:104AD0000F920F920F924DB75EB70F920E9445262C
:104AE000E4E3F1E00E948C254F915F91EF91FF91FB
:104AF000E595EE1FFF1F49F0FE57E0684427EE0FD3
:104B0000441FFA95E1F74195550B0E94BF250F9080
:104B100007FE0C94B3250895DF93CF931F930F9353
:104B2000FF92EF92DF927B018C01689406C0DA2E2F
:104B3000EF010E94A824FE01E894A59125913591EA
:104B400045915591A6F3EF010E941223FE019701B2
:104B5000A801DA9469F7DF90EF90FF900F911F9111
:104B6000CF91DF9108959B01AC0160E070E080E897
:104B70009FE30C946C230C943F240C9479260E94A0
:104B80006F24D8F39923C9F3940F511DA3F39150C7
:104B9000504094F059F0882332F0660F771F881F39
:104BA00091505040C1F79E3F51052CF7880F911D41
:104BB0009695879597F908955F3FACF0983E9CF0E5
:104BC000BB27869577956795B79508F4B16093955F
:104BD000C1F7BB0F58F711F460FFE8CF6F5F7F4F4D
:104BE0008F4F9F4FE3CF0C948A2416F00C947926B4
:104BF0000C94452468940C943F240E946F24A8F3DD
:104C00009923C1F3AEF3DF93CF931F930F93FF92DA
:104C1000C92FDD2788232AF02197660F771F881F69
:104C2000DAF720E030E040E85FEB9FE3883920F0DE
:104C3000803E38F021968F770E94FB22ECE5F1E070
:104C400004C00E94FB22E9E8F1E00E948C258B0160
:104C5000BE01EC01FB2E6F5771097595771F880B0C
:104C6000990B0E94E02328E132E741E35FE30E94D1
:104C7000A824AF2D9801AE01FF900F911F91CF9105
:104C8000DF910E9412230C945624FA01DC01AA0F32
:104C9000BB1F9B01AC01BF5728F4222733274427B1
:104CA000507820C0B75190F4AB2F0024469537952B
:104CB0002795011CA395D2F3002071F0220F331F1A
:104CC000441FB395DAF30ED00C94FA2261307105CB
:104CD000A0E88A07B94630F49B01AC016627772724
:104CE00088279078309621F0208331834283538344
:104CF00008959F3F31F0915020F4879577956795FF
:104D0000B795880F911D9695879597F90895A0E11D
:104D1000B0E0EDE8F6E20C940A2A7C011B016A017E
:104D2000FC0117821682838181FF44C39E012F5F9D
:104D30003F4F3901F7019381F10193FD859193FF75
:104D400081911F01882309F431C3853239F493FD21
:104D5000859193FF81911F01853239F4B70190E06D
:104D60000E94462B56016501E5CF10E0512C912C95
:104D7000FFE1F915D8F08B3279F038F4803279F010
:104D80008332A1F4F92DF0612EC08D3261F08033B1
:104D900069F4292D21602DC0392D3260932E892D83
:104DA0008460982E2AC0E92DE86015C097FC2DC0BC
:104DB00020ED280F2A3088F496FE06C03AE0139FB3
:104DC000200D1124122F19C08AE0589E200D1124A5
:104DD000522EE92DE0629E2E10C08E3231F496FCE8
:104DE000E5C2F92DF0649F2E08C08C3621F4292DE0
:104DF0002068922E02C0883641F4F10193FD85911E
:104E000093FF81911F018111B3CF9BEB980F9330DA
:104E100020F4992D9061805E07C09BE9980F933034
:104E200008F066C1992D9F7E96FF16E09F73992E1C
:104E3000853619F49064992E08C0863621F4392FEE
:104E40003068932E02C01111115097FE07C01C3319
:104E500050F444244394410E27E00BC0183038F03E
:104E600027E017E005C027E09CE3492E02C0212F70
:104E7000412C560184E0A80EB11CF60160817181BD
:104E800082819381042DA3010E94412A6C01F98142
:104E9000FC87F0FF02C0F3FF06C091FC06C092FE43
:104EA00006C000E205C00DE203C00BE201C000E055
:104EB0008C858C7019F001115AC29BC297FE10C0EC
:104EC0004C0CFC85F4FF04C08A81813309F44A94B8
:104ED000141474F528E0241578F588E0482E2CC0C9
:104EE00096FC2AC0812F90E08C159D059CF03CEF2C
:104EF000C3163FEFD30674F0892D8068982E0AC040
:104F0000E2E0F0E0EC0FFD1FE10FF11D8081803346
:104F100019F411501111F4CF97FE0EC0442443949C
:104F2000410E812F90E0C816D9062CF41C1904C03C
:104F30004424439401C010E097FE06C01C141D04D5
:104F400034F4C601019605C085E090E002C081E01E
:104F500090E001110196112331F0212F30E02F5FF5
:104F60003F4F820F931F252D30E08217930714F4D3
:104F7000581A01C0512C892D897049F4552039F0F7
:104F8000B70180E290E00E94462B5A94F7CF0023AD
:104F900029F0B701802F90E00E94462B93FC09C0B6
:104FA000552039F0B70180E390E00E94462B5A94D7
:104FB000F7CF97FE4CC04601D7FE02C0812C912C42
:104FC000C60188199909F301E80FF91FFE87ED87DB
:104FD000960124193109388B2F87012F10E0119584
:104FE000019511093FEF8316930629F4B7018EE26C
:104FF00090E00E94462BC814D9044CF08F85988904
:105000008815990524F4ED85FE85818101C080E332
:10501000F1E08F1A91082D853E852F5F3F4F3E8727
:105020002D87801691062CF0B70190E00E94462B48
:10503000D9CFC814D90441F49A81963320F495331A
:1050400019F43C8534FF81E3B70190E04EC08A81BA
:10505000813319F09C859F7E9C87B70190E00E9468
:10506000462B111105C094FC18C085E690E017C0CE
:10507000B7018EE290E00E94462B1E5F82E001E0C5
:10508000080FF301E80FF11D8081B70190E00E9445
:10509000462B802F0113F3CFE6CF85E490E0B701D4
:1050A0000E94462BD7FC06C0C114D10441F4EC8504
:1050B000E4FF05C0D194C194D1088DE201C08BE218
:1050C000B70190E00E94462B80E32AE0C216D1048B
:1050D0002CF08F5FFAE0CF1AD108F7CFB70190E03C
:1050E0000E94462BB701C601C0960E94462B54C1B0
:1050F000833631F0833779F0833509F056C020C00C
:10510000560132E0A30EB11CF6018081898301E0D3
:1051100010E0630112C05601F2E0AF0EB11CF601BF
:10512000C080D18096FE03C0612F70E002C06FEF97
:105130007FEFC6010E943B2B8C01F92DFF7714C035
:10514000560122E0A20EB11CF601C080D18096FE6D
:1051500003C0612F70E002C06FEF7FEFC6010E94B5
:10516000192B8C01F92DF0689F2EF3FD1AC0852DA7
:1051700090E008171907A8F4B70180E290E00E94B8
:10518000462B5A94F4CFF60197FC859197FE8191B6
:105190006F01B70190E00E94462B51105A940150C4
:1051A00011090115110579F7F7C0843611F0893618
:1051B00061F5560197FE09C024E0A20EB11CF6016C
:1051C00060817181828193810AC0F2E0AF0EB11CCF
:1051D000F60160817181072E000C880B990BF92D67
:1051E000FF769F2E97FF09C09095809570956195E9
:1051F0007F4F8F4F9F4FF0689F2E2AE030E0A30132
:105200000E94822BC82EC6183FC0092D853721F475
:105210000F7E2AE030E01DC0097F8F3691F018F430
:10522000883559F0C3C0803719F0883711F0BEC0F7
:10523000006104FF09C0046007C094FE08C0066056
:1052400006C028E030E005C020E130E002C020E1E7
:1052500032E0560107FF09C084E0A80EB11CF60138
:10526000608171818281938108C0F2E0AF0EB11C30
:10527000F6016081718180E090E0A3010E94822BA1
:10528000C82EC6180F77902E96FE0BC0092D0E7FE4
:10529000C11650F494FE0AC092FC08C0092D0E7E7F
:1052A00005C0DC2C092D03C0DC2C01C0D12E04FF6D
:1052B0000DC0FE01EC0DF11D8081803311F4097EDB
:1052C00009C002FF06C0D394D39404C0802F86780F
:1052D00009F0D39403FD11C000FF06C01C2DD514A6
:1052E00080F4150D1D190DC0D51458F4B70180E2D6
:1052F00090E00E94462BD394F7CFD51410F45D189C
:1053000001C0512C04FF10C0B70180E390E00E945F
:10531000462B02FF17C001FD03C088E790E002C0E2
:1053200088E590E0B7010CC0802F867859F001FF26
:1053300002C08BE201C080E207FD8DE2B70190E080
:105340000E94462BC11638F4B70180E390E00E941A
:10535000462B1150F7CFCA94F301EC0DF11D80815B
:10536000B70190E00E94462BC110F5CF15C0F4E0C4
:10537000F51560F584E0581A93FE1FC0011127C08F
:105380002C8523FF2AC006EB11E0392D3071932EB6
:10539000F8018491811124C0552009F4E4CCB701AF
:1053A00080E290E00E94462B5A94F6CFF701868166
:1053B000978126C08FEF9FEF23C0B70180E290E076
:1053C0000E94462B5A945110F8CFD8CF512CB701D8
:1053D000802F90E00E94462BD3CF0AEB11E0D5CF6F
:1053E00091108052B70190E00E94462B0F5F1F4F33
:1053F000CFCF23E0251510F483E0BDCF512CC0CFD3
:105400006096E2E10C94262AEE0FFF1F0590F491BE
:10541000E02D09942F923F924F925F926F927F926C
:105420008F929F92AF92BF92CF92DF92EF92FF92B4
:105430000F931F93CF93DF93CDB7DEB7CA1BDB0B60
:105440000FB6F894DEBF0FBECDBF09942A88398805
:1054500048885F846E847D848C849B84AA84B9840C
:10546000C884DF80EE80FD800C811B81AA81B98118
:10547000CE0FD11D0FB6F894DEBF0FBECDBFED012C
:105480000895283008F027E03327DA01990F311DFD
:1054900087FD916000966105710539F432602E5FD9
:1054A0003D9330E32A95E1F708959F3F30F080382F
:1054B0007105610509F03C5F3C5F3D93913008F058
:1054C0008068911DDF93CF931F930F93FF92EF920C
:1054D000192F987F9695E92F96959695E90FFF27B6
:1054E000E85EFD4F99273327EE24FF24A701E7014B
:1054F00005900894079428F4360FE71EF81E491FFC
:10550000511D660F771F881F991F0694A1F70590FC
:10551000079428F4E70EF81E491F561FC11D770F88
:10552000881F991F661F0694A1F70590079428F419
:10553000F80E491F561FC71FD11D880F991F661FE0
:10554000771F0694A1F70590079420F4490F561F82
:10555000C71FD81F990F661F771F881F0694A9F7CA
:1055600084911095177041F0D695C795579547953A
:10557000F794E7941A95C1F7EEEBF1E06894159073
:10558000159135916591959105907FE27395E1189C
:10559000F10A430B560BC90BD009C0F7E10CF11E01
:1055A000431F561FC91FD01D7EF4703311F48A9516
:1055B000E6CFE894015030F0080F0AF400270217F4
:1055C00008F4202F2395022F7A3328F079E37D9376
:1055D0002A95E9F710C07D932A9589F60694979548
:1055E0006795379517951794E118F10A430B560BF9
:1055F000C90BD00998F023957E9173957A3308F002
:1056000070E37C932013B8F77E9170617D9330F046
:10561000839571E37D9370E32A95E1F71124EF9070
:10562000FF900F911F91CF91DF91992787FD909562
:105630000895FC010590615070400110D8F78095E5
:1056400090958E0F9F1F0895FB01DC0102C0019011
:105650000D9241505040D8F70895FB01DC014150B4
:10566000504030F08D910190801919F40020B9F765
:10567000881B990B0895FC01615070400190011046
:10568000D8F7809590958E0F9F1F08950F931F93C5
:10569000CF93DF93FB01238121FD03C08FEF9FEFA9
:1056A0002CC022FF16C046815781248135814217C4
:1056B000530744F4A081B1819D012F5F3F4F318397
:1056C00020838C93268137812F5F3F4F378326833A
:1056D00014C08B01EC01FB010084F185E02D0995DC
:1056E000892BE1F6D80116968D919C91179701961A
:1056F00017969C938E931697CE01DF91CF911F91B1
:105700000F910895FA01AA27283051F1203181F133
:10571000E8946F936E7F6E5F7F4F8F4F9F4FAF4FB9
:10572000B1E03ED0B4E03CD0670F781F891F9A1FCC
:10573000A11D680F791F8A1F911DA11D6A0F711D80
:10574000811D911DA11D20D009F468943F912AE08C
:10575000269F11243019305D3193DEF6CF01089574
:10576000462F4770405D4193B3E00FD0C9F7F6CFA5
:10577000462F4F70405D4A3318F0495D31FD40526D
:10578000419302D0A9F7EACFB4E0A6959795879503
:1057900077956795BA95C9F70097610571050895E2
:1057A0009B01AC010A2E069457954795379527958E
:1057B000BA95C9F7620F731F841F951FA01D089526
:0457C000F894FFCF8B
:1057C4006F0001406080A0406688AA446688AA33BE
:1057D4005577990000000200000000A32200000099
:0257E4000000C3
:00000001FF
